:1000000012C019C018C08FC080C015C014C013C062
:1000100012C011C010C00FC00EC00DC00CC00BC06C
:100020000AC009C008C011241FBECFE5D4E0DEBF5E
:10003000CDBF84D051C1E4CF5F9BFECF8CB108957A
:1000400020E030E0000000000000000000000000A0
:1000500000000000000000002F5F3F4F8217930751
:1000600088F70895CF93DF93EC0107C08CB95E9BAE
:10007000FECF219688EE93E0E3DF88818823B1F7F5
:10008000DF91CF9108958CB95E9BFECF88EE93E00F
:10009000D7DF0895EF92FF920F931F93182F64E616
:1000A000E8D0482F282F30E08CE99FEF289F70017F
:1000B000299FF00C389FF00C1124C701810F911D6E
:1000C0006AE070E0E2D0062F842F805DDCDF802FB5
:1000D000805DD9DF105D1E0D86EF9FEF089F002D1C
:1000E0001124802F810FCFDF1F910F91FF90EF9090
:1000F00008951BB888E18AB986E880BD10BC8DE4FC
:1001000089B984E690E09CDF08951F920F920FB6A4
:100110000F9211248F9389E088BB8F910F900FBEAF
:100120000F901F9018951F920F920FB60F921124E7
:1001300018BA0F900FBE0F901F9018951F93D9DF1C
:1001400088EA91E60197F1F781EA8FBD89E08EBDDB
:100150001DBC1CBC80EC89BF8CE485BD789414BCAC
:100160008FE087BBEFEFF0E060E870E040EC50E03C
:1001700020E430E01FEFB0E890ECA0E45F9BFECFFE
:100180008CB18933E1F18A33B8F4843309F46FC058
:10019000853348F4823309F466C0833308F065C0C0
:1001A000813361F75EC08633F1F0863360F18733C7
:1001B000F1F0883319F71FC08436D9F1853638F449
:1001C000823659F1833678F58136C1F620C0813701
:1001D000D1F1823718F4803789F631C08237B9F10E
:1001E000833761F638C013BC3BBD2ABD13C013BCB6
:1001F0007BBD6ABD15C013BC5BBD4ABD17C013BC37
:10020000FBBDEABD19C013BC1BBC1ABC27C013BC84
:100210001BBC1ABC39BD28BDB1CF13BC1BBC1ABC5A
:1002200079BD68BDABCF13BC1BBC1ABC59BD48BD62
:10023000A5CF13BC1BBC1ABCF9BDE8BD9FCF13BC36
:100240003BBD2ABD0BC013BC7BBD6ABD07C013BC40
:100250005BBD4ABD03C013BCFBBDEABD19BC18BCE5
:100260008DCFA3BD8BCFB3BD89CF93BD87CF13BD3A
:1002700085CF991B79E004C0991F961708F0961B4B
:10028000881F7A95C9F78095089597FB092E072650
:100290000AD077FD04D00CD006D000201AF4709557
:1002A00061957F4F0895F6F7909581959F4F08953A
:1002B000AA1BBB1B51E107C0AA1FBB1FA617B7078C
:1002C00010F0A61BB70B881F991F5A95A9F78095A8
:0C02D0009095BC01CD010895F894FFCF7B
:00000001FF
