:1000000012C021C020C01FC01EC01DC01CC01BC00C
:100010001AC019C018C017C016C015C014C013C02C
:1000200012C011C010C011241FBECFE5D4E0DEBF46
:10003000CDBF10E0A0E6B0E001C01D92A736B10729
:10004000E1F73ED1D8C2DCCF86E886B9089590E6C4
:1000500097B997B1982B97B9369A88EB9BE001979F
:10006000F1F785B108952091600090E002C09F5F94
:100070002BE09817E0F320936000909361000895BF
:10008000C59888ECF0DFC59A88ECEDDFC598089537
:100090001F93182F88B38F7C88BB812F82958F7018
:1000A00088BBEEDF1F7018BBEBDF1F9108951F9315
:1000B000182F80E188BB18BA812F82958F708061DC
:1000C00088BBDEDF1F70106118BBDADF1F91089557
:1000D000CF93DF93EC0102C0EADF21968881882369
:1000E000D9F7DF91CF910895EF92FF920F931F936D
:1000F000182F64E64DD2482F282F30E08CE99FEF6F
:10010000289F7001299FF00C389FF00C1124C70123
:10011000810F911D6AE070E047D2062F842F805D29
:10012000C6DF802F805DC3DF105D1E0D86EF9FEF61
:10013000089F002D1124802F810FB9DF1F910F918F
:10014000FF90EF900895882321F4862F8058A0DF38
:100150000895813019F4862F80549ADF08950AC0DB
:1001600020E030E000002F5F3F4F4CE02C3C340794
:10017000C9F701970097A1F708951F938FE387BBF5
:1001800084E190E0ECDF13E018BB7ADF85E090E0DB
:10019000E6DF18BB75DF81E090E0E1DF18BB70DFC0
:1001A00081E090E0DCDF82E088BB6ADF85E090E000
:1001B000D6DF88E26DDF81E090E0D1DF88E068DFA4
:1001C00081E090E0CCDF81E063DF81E090E0C7DF99
:1001D00086E05EDF81E090E0C2DF8CE059DF82E004
:1001E00090E0BDDF1F91089581E052DF08955F9B8D
:1001F000FECF8CB1089520E030E000000000000048
:1002000000000000000000000000000000002F5F60
:100210003F4F8217930788F70895CF93DF93EC0140
:1002200007C08CB95E9BFECF219688EE93E0E3DF9A
:1002300088818823B1F7DF91CF9108958CB95E9BB7
:10024000FECF88EE93E0D7DF0895EF92FF920F93F1
:100250001F93182F64E69CD1482F282F30E08CE99B
:100260009FEF289F7001299FF00C389FF00C1124FC
:10027000C701810F911D6AE070E096D1062F842F8F
:10028000805DDCDF802F805DD9DF105D1E0D86EF85
:100290009FEF089F002D1124802F810FCFDF1F912A
:1002A0000F91FF90EF9008951BB888E18AB986E816
:1002B00080BD10BC8DE489B984E690E09CDF089590
:1002C0001F93CF93DF9386E886B957DFEDDF10E603
:1002D000C8EBDBE080E060E036DF17B987B187B9B3
:1002E000369ACE010197F1F785B1FEDE8CE2DFDEB2
:1002F00017B9389A369ACE010197F1F785B1F4DE35
:100300008CE2D5DE17B9399A369ACE010197F1F70A
:1003100085B1EADE8CE2CBDE17B987B187B9369AB0
:10032000CE010197F1F785B1482F50E017B9389AFF
:10033000369ACE010197F1F785B117B9399A369AF5
:10034000FE013197F1F795B1282F30E0C9018F54A4
:1003500090400B9760F4CA018C559040429738F456
:1003600085E36CDF81E061E0EEDE85E30FC1C9016A
:1003700089549040069760F4CA01805690400E97C9
:1003800038F486E35BDF81E061E0DDDE86E3FEC01A
:10039000C90181549040089760F4CA01805690408A
:1003A0000E9738F487E34ADF81E061E0CCDE87E333
:1003B000EDC0C901C997089760F4CA018056904002
:1003C0000E9738F488E33ADF81E061E0BCDE88E331
:1003D000DDC0C901C197089760F4CA0180569040FA
:1003E0000E9738F489E32ADF81E061E0ACDE89E32F
:1003F000CDC0C9018B559040069760F4CA01805664
:1004000090400E9738F481E319DF81E061E09BDED4
:1004100081E3BCC0C90181569040069760F4CA01CF
:10042000805690400E9738F482E308DF81E061E067
:100430008ADE82E3ABC0C90187569040069760F41C
:10044000CA01805690400E9738F483E3F7DE81E0CE
:1004500061E079DE83E39AC0C9018D569040089728
:1004600060F4CA01805690400E9738F484E3E6DECB
:1004700081E061E068DE84E389C0CA018F56904064
:10048000089760F4C9018C5490400E9738F480E7C7
:10049000D5DE81E061E057DE80E778C0CA0187578A
:1004A0009040069760F4C9018C5490400E9738F440
:1004B00081E7C4DE81E061E046DE81E767C0CA0112
:1004C0008D5790400E9760F4C9018C5490400E9760
:1004D00038F482E7B3DE81E061E035DE82E756C0C2
:1004E000CA018B589040069760F4C9018C54904023
:1004F0000E9738F483E7A2DE81E061E024DE83E733
:1005000045C0CA0186559040049760F4C9018C54D7
:1005100090400E9738F481E691DE81E061E013DED1
:1005200081E634C0CA018E549040089760F4C90136
:100530008C5490400E9738F482E680DE81E061E0D2
:1005400002DE82E623C0CA0186549040089760F418
:10055000C9018C5490400E9738F483E66FDE81E039
:1005600061E0F1DD83E612C04B5350404B30510542
:1005700008F0B0CE2C5430402E30310508F0AACE11
:1005800084E65CDE81E061E0DEDD84E6ADDDA2CE06
:10059000991B79E004C0991F961708F0961B881FD5
:1005A0007A95C9F78095089597FB092E07260AD0FA
:1005B00077FD04D00CD006D000201AF47095619518
:1005C0007F4F0895F6F7909581959F4F0895AA1B48
:1005D000BB1B51E107C0AA1FBB1FA617B70710F02E
:1005E000A61BB70B881F991F5A95A9F78095909560
:0A05F000BC01CD010895F894FFCF7F
:00000001FF
